{
  "contractName": "Asignatura",
  "abi": [
    {
      "inputs": [
        {
          "internalType": "string",
          "name": "_nombre",
          "type": "string"
        },
        {
          "internalType": "string",
          "name": "_curso",
          "type": "string"
        }
      ],
      "stateMutability": "nonpayable",
      "type": "constructor"
    },
    {
      "inputs": [],
      "name": "DNIExistente",
      "type": "error"
    },
    {
      "inputs": [
        {
          "internalType": "address",
          "name": "",
          "type": "address"
        },
        {
          "internalType": "uint256",
          "name": "",
          "type": "uint256"
        }
      ],
      "name": "calificaciones",
      "outputs": [
        {
          "internalType": "enum Asignatura.TipoNota",
          "name": "tipo",
          "type": "uint8"
        },
        {
          "internalType": "uint256",
          "name": "calificacion",
          "type": "uint256"
        }
      ],
      "stateMutability": "view",
      "type": "function",
      "constant": true
    },
    {
      "inputs": [],
      "name": "cerrada",
      "outputs": [
        {
          "internalType": "bool",
          "name": "",
          "type": "bool"
        }
      ],
      "stateMutability": "view",
      "type": "function",
      "constant": true
    },
    {
      "inputs": [],
      "name": "coordinador",
      "outputs": [
        {
          "internalType": "address",
          "name": "",
          "type": "address"
        }
      ],
      "stateMutability": "view",
      "type": "function",
      "constant": true
    },
    {
      "inputs": [],
      "name": "curso",
      "outputs": [
        {
          "internalType": "string",
          "name": "",
          "type": "string"
        }
      ],
      "stateMutability": "view",
      "type": "function",
      "constant": true
    },
    {
      "inputs": [
        {
          "internalType": "address",
          "name": "",
          "type": "address"
        }
      ],
      "name": "datosAlumno",
      "outputs": [
        {
          "internalType": "string",
          "name": "nombre",
          "type": "string"
        },
        {
          "internalType": "string",
          "name": "dni",
          "type": "string"
        },
        {
          "internalType": "string",
          "name": "email",
          "type": "string"
        }
      ],
      "stateMutability": "view",
      "type": "function",
      "constant": true
    },
    {
      "inputs": [
        {
          "internalType": "address",
          "name": "",
          "type": "address"
        }
      ],
      "name": "datosProfesor",
      "outputs": [
        {
          "internalType": "string",
          "name": "",
          "type": "string"
        }
      ],
      "stateMutability": "view",
      "type": "function",
      "constant": true
    },
    {
      "inputs": [
        {
          "internalType": "uint256",
          "name": "",
          "type": "uint256"
        }
      ],
      "name": "evaluaciones",
      "outputs": [
        {
          "internalType": "string",
          "name": "nombre",
          "type": "string"
        },
        {
          "internalType": "uint256",
          "name": "fecha",
          "type": "uint256"
        },
        {
          "internalType": "uint256",
          "name": "porcentaje",
          "type": "uint256"
        },
        {
          "internalType": "uint256",
          "name": "notaMin",
          "type": "uint256"
        }
      ],
      "stateMutability": "view",
      "type": "function",
      "constant": true
    },
    {
      "inputs": [
        {
          "internalType": "uint256",
          "name": "",
          "type": "uint256"
        }
      ],
      "name": "matriculas",
      "outputs": [
        {
          "internalType": "address",
          "name": "",
          "type": "address"
        }
      ],
      "stateMutability": "view",
      "type": "function",
      "constant": true
    },
    {
      "inputs": [],
      "name": "nombre",
      "outputs": [
        {
          "internalType": "string",
          "name": "",
          "type": "string"
        }
      ],
      "stateMutability": "view",
      "type": "function",
      "constant": true
    },
    {
      "inputs": [],
      "name": "owner",
      "outputs": [
        {
          "internalType": "address",
          "name": "",
          "type": "address"
        }
      ],
      "stateMutability": "view",
      "type": "function",
      "constant": true
    },
    {
      "inputs": [
        {
          "internalType": "uint256",
          "name": "",
          "type": "uint256"
        }
      ],
      "name": "profesores",
      "outputs": [
        {
          "internalType": "address",
          "name": "",
          "type": "address"
        }
      ],
      "stateMutability": "view",
      "type": "function",
      "constant": true
    },
    {
      "inputs": [],
      "name": "version",
      "outputs": [
        {
          "internalType": "string",
          "name": "",
          "type": "string"
        }
      ],
      "stateMutability": "view",
      "type": "function",
      "constant": true
    },
    {
      "stateMutability": "payable",
      "type": "receive",
      "payable": true
    },
    {
      "inputs": [],
      "name": "getNombre",
      "outputs": [
        {
          "internalType": "string",
          "name": "",
          "type": "string"
        }
      ],
      "stateMutability": "view",
      "type": "function",
      "constant": true
    },
    {
      "inputs": [],
      "name": "getCurso",
      "outputs": [
        {
          "internalType": "string",
          "name": "",
          "type": "string"
        }
      ],
      "stateMutability": "view",
      "type": "function",
      "constant": true
    },
    {
      "inputs": [],
      "name": "getOwner",
      "outputs": [
        {
          "internalType": "address",
          "name": "",
          "type": "address"
        }
      ],
      "stateMutability": "view",
      "type": "function",
      "constant": true
    },
    {
      "inputs": [],
      "name": "getCoordinador",
      "outputs": [
        {
          "internalType": "address",
          "name": "",
          "type": "address"
        }
      ],
      "stateMutability": "view",
      "type": "function",
      "constant": true
    },
    {
      "inputs": [],
      "name": "profesoresLength",
      "outputs": [
        {
          "internalType": "uint256",
          "name": "",
          "type": "uint256"
        }
      ],
      "stateMutability": "view",
      "type": "function",
      "constant": true
    },
    {
      "inputs": [],
      "name": "matriculasLength",
      "outputs": [
        {
          "internalType": "uint256",
          "name": "",
          "type": "uint256"
        }
      ],
      "stateMutability": "view",
      "type": "function",
      "constant": true
    },
    {
      "inputs": [],
      "name": "quienSoy",
      "outputs": [
        {
          "internalType": "string",
          "name": "",
          "type": "string"
        },
        {
          "internalType": "string",
          "name": "",
          "type": "string"
        },
        {
          "internalType": "string",
          "name": "",
          "type": "string"
        }
      ],
      "stateMutability": "view",
      "type": "function",
      "constant": true
    },
    {
      "inputs": [],
      "name": "evaluacionesLength",
      "outputs": [
        {
          "internalType": "uint256",
          "name": "",
          "type": "uint256"
        }
      ],
      "stateMutability": "view",
      "type": "function",
      "constant": true
    },
    {
      "inputs": [
        {
          "internalType": "uint256",
          "name": "evaluacion",
          "type": "uint256"
        }
      ],
      "name": "miNota",
      "outputs": [
        {
          "internalType": "enum Asignatura.TipoNota",
          "name": "tipo",
          "type": "uint8"
        },
        {
          "internalType": "uint256",
          "name": "calificacion",
          "type": "uint256"
        }
      ],
      "stateMutability": "view",
      "type": "function",
      "constant": true
    },
    {
      "inputs": [],
      "name": "miNotaFinal",
      "outputs": [
        {
          "internalType": "enum Asignatura.TipoNota",
          "name": "",
          "type": "uint8"
        },
        {
          "internalType": "uint256",
          "name": "",
          "type": "uint256"
        }
      ],
      "stateMutability": "view",
      "type": "function",
      "constant": true
    },
    {
      "inputs": [
        {
          "internalType": "address",
          "name": "_alumno",
          "type": "address"
        }
      ],
      "name": "notaFinal",
      "outputs": [
        {
          "internalType": "enum Asignatura.TipoNota",
          "name": "",
          "type": "uint8"
        },
        {
          "internalType": "uint256",
          "name": "",
          "type": "uint256"
        }
      ],
      "stateMutability": "view",
      "type": "function",
      "constant": true
    },
    {
      "inputs": [
        {
          "internalType": "address",
          "name": "_nuevaDireccion",
          "type": "address"
        }
      ],
      "name": "setCoordinador",
      "outputs": [],
      "stateMutability": "nonpayable",
      "type": "function"
    },
    {
      "inputs": [],
      "name": "cerrar",
      "outputs": [],
      "stateMutability": "nonpayable",
      "type": "function"
    },
    {
      "inputs": [
        {
          "internalType": "address",
          "name": "_profesorDireccion",
          "type": "address"
        },
        {
          "internalType": "string",
          "name": "_nombre",
          "type": "string"
        }
      ],
      "name": "addProfesor",
      "outputs": [],
      "stateMutability": "nonpayable",
      "type": "function"
    },
    {
      "inputs": [
        {
          "internalType": "string",
          "name": "_nombre",
          "type": "string"
        },
        {
          "internalType": "string",
          "name": "_dni",
          "type": "string"
        },
        {
          "internalType": "string",
          "name": "_email",
          "type": "string"
        }
      ],
      "name": "automatricula",
      "outputs": [],
      "stateMutability": "nonpayable",
      "type": "function"
    },
    {
      "inputs": [
        {
          "internalType": "address",
          "name": "_direccion",
          "type": "address"
        },
        {
          "internalType": "string",
          "name": "_nombre",
          "type": "string"
        },
        {
          "internalType": "string",
          "name": "_dni",
          "type": "string"
        },
        {
          "internalType": "string",
          "name": "_email",
          "type": "string"
        }
      ],
      "name": "matricular",
      "outputs": [],
      "stateMutability": "nonpayable",
      "type": "function"
    },
    {
      "inputs": [
        {
          "internalType": "string",
          "name": "_nombre",
          "type": "string"
        },
        {
          "internalType": "uint256",
          "name": "_fecha",
          "type": "uint256"
        },
        {
          "internalType": "uint256",
          "name": "_porcentaje",
          "type": "uint256"
        },
        {
          "internalType": "uint256",
          "name": "_notaMin",
          "type": "uint256"
        }
      ],
      "name": "creaEvaluacion",
      "outputs": [
        {
          "internalType": "uint256",
          "name": "",
          "type": "uint256"
        }
      ],
      "stateMutability": "nonpayable",
      "type": "function"
    },
    {
      "inputs": [
        {
          "internalType": "address",
          "name": "_alumno",
          "type": "address"
        },
        {
          "internalType": "uint256",
          "name": "evaluacionIndex",
          "type": "uint256"
        },
        {
          "internalType": "enum Asignatura.TipoNota",
          "name": "tipo",
          "type": "uint8"
        },
        {
          "internalType": "uint256",
          "name": "calificacion",
          "type": "uint256"
        }
      ],
      "name": "califica",
      "outputs": [],
      "stateMutability": "nonpayable",
      "type": "function"
    }
  ],
  "bytecode": "0x60806040526040518060400160405280600981526020017f323032332046756c6c0000000000000000000000000000000000000000000000815250600090816200004a9190620003f3565b503480156200005857600080fd5b506040516200437f3803806200437f83398181016040528101906200007e91906200063e565b6000825103620000c5576040517f08c379a0000000000000000000000000000000000000000000000000000000008152600401620000bc906200074a565b60405180910390fd5b60008151036200010c576040517f08c379a00000000000000000000000000000000000000000000000000000000081526004016200010390620007e2565b60405180910390fd5b33600160006101000a81548173ffffffffffffffffffffffffffffffffffffffff021916908373ffffffffffffffffffffffffffffffffffffffff16021790555081600290816200015e9190620003f3565b508060039081620001709190620003f3565b50505062000804565b600081519050919050565b7f4e487b7100000000000000000000000000000000000000000000000000000000600052604160045260246000fd5b7f4e487b7100000000000000000000000000000000000000000000000000000000600052602260045260246000fd5b60006002820490506001821680620001fb57607f821691505b602082108103620002115762000210620001b3565b5b50919050565b60008190508160005260206000209050919050565b60006020601f8301049050919050565b600082821b905092915050565b6000600883026200027b7fffffffffffffffffffffffffffffffffffffffffffffffffffffffffffffffff826200023c565b6200028786836200023c565b95508019841693508086168417925050509392505050565b6000819050919050565b6000819050919050565b6000620002d4620002ce620002c8846200029f565b620002a9565b6200029f565b9050919050565b6000819050919050565b620002f083620002b3565b62000308620002ff82620002db565b84845462000249565b825550505050565b600090565b6200031f62000310565b6200032c818484620002e5565b505050565b5b8181101562000354576200034860008262000315565b60018101905062000332565b5050565b601f821115620003a3576200036d8162000217565b62000378846200022c565b8101602085101562000388578190505b620003a062000397856200022c565b83018262000331565b50505b505050565b600082821c905092915050565b6000620003c860001984600802620003a8565b1980831691505092915050565b6000620003e38383620003b5565b9150826002028217905092915050565b620003fe8262000179565b67ffffffffffffffff8111156200041a576200041962000184565b5b620004268254620001e2565b6200043382828562000358565b600060209050601f8311600181146200046b576000841562000456578287015190505b620004628582620003d5565b865550620004d2565b601f1984166200047b8662000217565b60005b82811015620004a5578489015182556001820191506020850194506020810190506200047e565b86831015620004c55784890151620004c1601f891682620003b5565b8355505b6001600288020188555050505b505050505050565b6000604051905090565b600080fd5b600080fd5b600080fd5b600080fd5b6000601f19601f8301169050919050565b6200051482620004f8565b810181811067ffffffffffffffff8211171562000536576200053562000184565b5b80604052505050565b60006200054b620004da565b905062000559828262000509565b919050565b600067ffffffffffffffff8211156200057c576200057b62000184565b5b6200058782620004f8565b9050602081019050919050565b60005b83811015620005b457808201518184015260208101905062000597565b60008484015250505050565b6000620005d7620005d1846200055e565b6200053f565b905082815260208101848484011115620005f657620005f5620004f3565b5b6200060384828562000594565b509392505050565b600082601f830112620006235762000622620004ee565b5b815162000635848260208601620005c0565b91505092915050565b60008060408385031215620006585762000657620004e4565b5b600083015167ffffffffffffffff811115620006795762000678620004e9565b5b62000687858286016200060b565b925050602083015167ffffffffffffffff811115620006ab57620006aa620004e9565b5b620006b9858286016200060b565b9150509250929050565b600082825260208201905092915050565b7f456c206e6f6d627265206465206c6120617369676e6174757261206e6f20707560008201527f6564652073657220766163696f00000000000000000000000000000000000000602082015250565b600062000732602d83620006c3565b91506200073f82620006d4565b604082019050919050565b60006020820190508181036000830152620007658162000723565b9050919050565b7f456c20637572736f2061636164656d69636f206465206c6120617369676e617460008201527f757261206e6f2070756564652073657220766163696f00000000000000000000602082015250565b6000620007ca603683620006c3565b9150620007d7826200076c565b604082019050919050565b60006020820190508181036000830152620007fd81620007bb565b9050919050565b613b6b80620008146000396000f3fe6080604052600436106101d15760003560e01c80636bf8aad6116100f7578063c837375011610095578063d75cbf9b11610064578063d75cbf9b14610717578063dab6ff2814610742578063deafcc4114610759578063f967f9861461078457610211565b8063c837375014610647578063d00de47a14610684578063d27c3f3c146106b0578063d51b4584146106ee57610211565b80638da5cb5b116100d15780638da5cb5b146105895780639e1d8f4b146105b4578063bc7b35b2146105df578063c79181391461060a57610211565b80636bf8aad6146104f45780637810ff1e14610533578063893d20e81461055e57610211565b8063479f6c6f1161016f57806354fd4d501161013e57806354fd4d50146104255780635aa4ffe614610450578063641945bf1461048e578063681d4ca6146104cb57610211565b8063479f6c6f1461037957806347ba31da146103a4578063488cf4f5146103cd57806353766883146103f857610211565b806322c4e394116101ab57806322c4e394146102a757806330322c9b146102d257806342a6dde2146102fb57806344f7a8cc1461033957610211565b8063034856d7146102165780630d126bc4146102535780631d2e4d2b1461027e57610211565b36610211576040517f08c379a0000000000000000000000000000000000000000000000000000000008152600401610208906125b2565b60405180910390fd5b600080fd5b34801561022257600080fd5b5061023d60048036038101906102389190612762565b6107af565b60405161024a91906127f4565b60405180910390f35b34801561025f57600080fd5b50610268610a17565b604051610275919061287d565b60405180910390f35b34801561028a57600080fd5b506102a560048036038101906102a091906128fd565b610aa9565b005b3480156102b357600080fd5b506102bc610c93565b6040516102c99190612974565b60405180910390f35b3480156102de57600080fd5b506102f960048036038101906102f491906129b4565b610ca6565b005b34801561030757600080fd5b50610322600480360381019061031d9190612a1b565b610f66565b604051610330929190612ad2565b60405180910390f35b34801561034557600080fd5b50610360600480360381019061035b9190612afb565b610fa4565b6040516103709493929190612b28565b60405180910390f35b34801561038557600080fd5b5061038e61106c565b60405161039b9190612b83565b60405180910390f35b3480156103b057600080fd5b506103cb60048036038101906103c69190612b9e565b611096565b005b3480156103d957600080fd5b506103e2611347565b6040516103ef91906127f4565b60405180910390f35b34801561040457600080fd5b5061040d611354565b60405161041c93929190612c59565b60405180910390f35b34801561043157600080fd5b5061043a6115c0565b604051610447919061287d565b60405180910390f35b34801561045c57600080fd5b5061047760048036038101906104729190612ca5565b61164e565b604051610485929190612ad2565b60405180910390f35b34801561049a57600080fd5b506104b560048036038101906104b09190612ca5565b6116f3565b6040516104c2919061287d565b60405180910390f35b3480156104d757600080fd5b506104f260048036038101906104ed9190612cd2565b611793565b005b34801561050057600080fd5b5061051b60048036038101906105169190612ca5565b611a0c565b60405161052a93929190612c59565b60405180910390f35b34801561053f57600080fd5b50610548611bce565b6040516105559190612b83565b60405180910390f35b34801561056a57600080fd5b50610573611bf4565b6040516105809190612b83565b60405180910390f35b34801561059557600080fd5b5061059e611c1e565b6040516105ab9190612b83565b60405180910390f35b3480156105c057600080fd5b506105c9611c44565b6040516105d691906127f4565b60405180910390f35b3480156105eb57600080fd5b506105f4611c51565b604051610601919061287d565b60405180910390f35b34801561061657600080fd5b50610631600480360381019061062c9190612afb565b611cdf565b60405161063e9190612b83565b60405180910390f35b34801561065357600080fd5b5061066e60048036038101906106699190612afb565b611d1e565b60405161067b9190612b83565b60405180910390f35b34801561069057600080fd5b50610699611d5d565b6040516106a7929190612ad2565b60405180910390f35b3480156106bc57600080fd5b506106d760048036038101906106d29190612afb565b611db9565b6040516106e5929190612ad2565b60405180910390f35b3480156106fa57600080fd5b5061071560048036038101906107109190612ca5565b611f03565b005b34801561072357600080fd5b5061072c61202d565b604051610739919061287d565b60405180910390f35b34801561074e57600080fd5b506107576120bf565b005b34801561076557600080fd5b5061076e6121c2565b60405161077b919061287d565b60405180910390f35b34801561079057600080fd5b50610799612250565b6040516107a691906127f4565b60405180910390f35b6000801515600460149054906101000a900460ff16151514610806576040517f08c379a00000000000000000000000000000000000000000000000000000000081526004016107fd90612deb565b60405180910390fd5b6000600760003373ffffffffffffffffffffffffffffffffffffffff1673ffffffffffffffffffffffffffffffffffffffff1681526020019081526020016000206040516020016108579190612f0e565b6040516020818303038152906040529050600060405160200161087990612f4b565b6040516020818303038152906040529050808051906020012082805190602001201415806108f45750600460009054906101000a900473ffffffffffffffffffffffffffffffffffffffff1673ffffffffffffffffffffffffffffffffffffffff163373ffffffffffffffffffffffffffffffffffffffff16145b610933576040517f08c379a000000000000000000000000000000000000000000000000000000000815260040161092a90612fd2565b60405180910390fd5b6000875103610977576040517f08c379a000000000000000000000000000000000000000000000000000000000815260040161096e90613064565b60405180910390fd5b6009604051806080016040528089815260200188815260200187815260200186815250908060018154018082558091505060019003906000526020600020906004020160009091909190915060008201518160000190816109d8919061321b565b5060208201518160010155604082015181600201556060820151816003015550506001600980549050610a0b919061331c565b92505050949350505050565b606060038054610a2690612e3a565b80601f0160208091040260200160405190810160405280929190818152602001828054610a5290612e3a565b8015610a9f5780601f10610a7457610100808354040283529160200191610a9f565b820191906000526020600020905b815481529060010190602001808311610a8257829003601f168201915b5050505050905090565b60001515600460149054906101000a900460ff16151514610aff576040517f08c379a0000000000000000000000000000000000000000000000000000000008152600401610af690612deb565b60405180910390fd5b6000815103610b43576040517f08c379a0000000000000000000000000000000000000000000000000000000008152600401610b3a9061339c565b60405180910390fd5b6000600760008473ffffffffffffffffffffffffffffffffffffffff1673ffffffffffffffffffffffffffffffffffffffff168152602001908152602001600020604051602001610b949190612f0e565b60405160208183030381529060405290506000604051602001610bb690612f4b565b60405160208183030381529060405290508080519060200120828051906020012003610c8d5782600760008673ffffffffffffffffffffffffffffffffffffffff1673ffffffffffffffffffffffffffffffffffffffff1681526020019081526020016000209081610c28919061321b565b506008849080600181540180825580915050600190039060005260206000200160009091909190916101000a81548173ffffffffffffffffffffffffffffffffffffffff021916908373ffffffffffffffffffffffffffffffffffffffff1602179055505b50505050565b600460149054906101000a900460ff1681565b6000600760003373ffffffffffffffffffffffffffffffffffffffff1673ffffffffffffffffffffffffffffffffffffffff168152602001908152602001600020604051602001610cf79190612f0e565b60405160208183030381529060405290506000604051602001610d1990612f4b565b60405160208183030381529060405290508080519060200120828051906020012003610d7a576040517f08c379a0000000000000000000000000000000000000000000000000000000008152600401610d719061342e565b60405180910390fd5b60001515600460149054906101000a900460ff16151514610dd0576040517f08c379a0000000000000000000000000000000000000000000000000000000008152600401610dc790612deb565b60405180910390fd5b610dd98661225d565b610e18576040517f08c379a0000000000000000000000000000000000000000000000000000000008152600401610e0f906134c0565b60405180910390fd5b6009805490508510610e5f576040517f08c379a0000000000000000000000000000000000000000000000000000000008152600401610e5690613552565b60405180910390fd5b6103e8831115610ea4576040517f08c379a0000000000000000000000000000000000000000000000000000000008152600401610e9b9061360a565b60405180910390fd5b60006040518060400160405280866002811115610ec457610ec3612a5b565b5b815260200185815250905080600a60008973ffffffffffffffffffffffffffffffffffffffff1673ffffffffffffffffffffffffffffffffffffffff168152602001908152602001600020600088815260200190815260200160002060008201518160000160006101000a81548160ff02191690836002811115610f4b57610f4a612a5b565b5b02179055506020820151816001015590505050505050505050565b600a602052816000526040600020602052806000526040600020600091509150508060000160009054906101000a900460ff16908060010154905082565b60098181548110610fb457600080fd5b9060005260206000209060040201600091509050806000018054610fd790612e3a565b80601f016020809104026020016040519081016040528092919081815260200182805461100390612e3a565b80156110505780601f1061102557610100808354040283529160200191611050565b820191906000526020600020905b81548152906001019060200180831161103357829003601f168201915b5050505050908060010154908060020154908060030154905084565b6000600460009054906101000a900473ffffffffffffffffffffffffffffffffffffffff16905090565b600160009054906101000a900473ffffffffffffffffffffffffffffffffffffffff1673ffffffffffffffffffffffffffffffffffffffff163373ffffffffffffffffffffffffffffffffffffffff1614611126576040517f08c379a000000000000000000000000000000000000000000000000000000000815260040161111d9061369c565b60405180910390fd5b600083510361116a576040517f08c379a000000000000000000000000000000000000000000000000000000000815260040161116190613708565b60405180910390fd5b60008251036111ae576040517f08c379a00000000000000000000000000000000000000000000000000000000081526004016111a590613774565b60405180910390fd5b6000600560008673ffffffffffffffffffffffffffffffffffffffff1673ffffffffffffffffffffffffffffffffffffffff16815260200190815260200160002060010180546111fd90612e3a565b90501461123f576040517f08c379a0000000000000000000000000000000000000000000000000000000008152600401611236906137e0565b60405180910390fd5b604051806060016040528084815260200183815260200182815250600560008673ffffffffffffffffffffffffffffffffffffffff1673ffffffffffffffffffffffffffffffffffffffff16815260200190815260200160002060008201518160000190816112ae919061321b565b5060208201518160010190816112c4919061321b565b5060408201518160020190816112da919061321b565b509050506006849080600181540180825580915050600190039060005260206000200160009091909190916101000a81548173ffffffffffffffffffffffffffffffffffffffff021916908373ffffffffffffffffffffffffffffffffffffffff16021790555050505050565b6000600980549050905090565b60608060606113623361225d565b6113a1576040517f08c379a000000000000000000000000000000000000000000000000000000000815260040161139890613872565b60405180910390fd5b6000600560003373ffffffffffffffffffffffffffffffffffffffff1673ffffffffffffffffffffffffffffffffffffffff1681526020019081526020016000206040518060600160405290816000820180546113fd90612e3a565b80601f016020809104026020016040519081016040528092919081815260200182805461142990612e3a565b80156114765780601f1061144b57610100808354040283529160200191611476565b820191906000526020600020905b81548152906001019060200180831161145957829003601f168201915b5050505050815260200160018201805461148f90612e3a565b80601f01602080910402602001604051908101604052809291908181526020018280546114bb90612e3a565b80156115085780601f106114dd57610100808354040283529160200191611508565b820191906000526020600020905b8154815290600101906020018083116114eb57829003601f168201915b5050505050815260200160028201805461152190612e3a565b80601f016020809104026020016040519081016040528092919081815260200182805461154d90612e3a565b801561159a5780601f1061156f5761010080835404028352916020019161159a565b820191906000526020600020905b81548152906001019060200180831161157d57829003601f168201915b505050505081525050905080600001518160200151826040015193509350935050909192565b600080546115cd90612e3a565b80601f01602080910402602001604051908101604052809291908181526020018280546115f990612e3a565b80156116465780601f1061161b57610100808354040283529160200191611646565b820191906000526020600020905b81548152906001019060200180831161162957829003601f168201915b505050505081565b600080600460009054906101000a900473ffffffffffffffffffffffffffffffffffffffff1673ffffffffffffffffffffffffffffffffffffffff163373ffffffffffffffffffffffffffffffffffffffff16146116e1576040517f08c379a00000000000000000000000000000000000000000000000000000000081526004016116d890613904565b60405180910390fd5b6116ea8361233b565b91509150915091565b6007602052806000526040600020600091509050805461171290612e3a565b80601f016020809104026020016040519081016040528092919081815260200182805461173e90612e3a565b801561178b5780601f106117605761010080835404028352916020019161178b565b820191906000526020600020905b81548152906001019060200180831161176e57829003601f168201915b505050505081565b61179c3361225d565b156117dc576040517f08c379a00000000000000000000000000000000000000000000000000000000081526004016117d390613996565b60405180910390fd5b6000835103611820576040517f08c379a000000000000000000000000000000000000000000000000000000000815260040161181790613708565b60405180910390fd5b6000825103611864576040517f08c379a000000000000000000000000000000000000000000000000000000000815260040161185b90613774565b60405180910390fd5b6000600560003373ffffffffffffffffffffffffffffffffffffffff1673ffffffffffffffffffffffffffffffffffffffff1681526020019081526020016000206001016040516020016118b89190612f0e565b60405160208183030381529060405290506000815114611904576040517f88b7082900000000000000000000000000000000000000000000000000000000815260040160405180910390fd5b604051806060016040528085815260200184815260200183815250600560003373ffffffffffffffffffffffffffffffffffffffff1673ffffffffffffffffffffffffffffffffffffffff1681526020019081526020016000206000820151816000019081611973919061321b565b506020820151816001019081611989919061321b565b50604082015181600201908161199f919061321b565b509050506006339080600181540180825580915050600190039060005260206000200160009091909190916101000a81548173ffffffffffffffffffffffffffffffffffffffff021916908373ffffffffffffffffffffffffffffffffffffffff16021790555050505050565b6005602052806000526040600020600091509050806000018054611a2f90612e3a565b80601f0160208091040260200160405190810160405280929190818152602001828054611a5b90612e3a565b8015611aa85780601f10611a7d57610100808354040283529160200191611aa8565b820191906000526020600020905b815481529060010190602001808311611a8b57829003601f168201915b505050505090806001018054611abd90612e3a565b80601f0160208091040260200160405190810160405280929190818152602001828054611ae990612e3a565b8015611b365780601f10611b0b57610100808354040283529160200191611b36565b820191906000526020600020905b815481529060010190602001808311611b1957829003601f168201915b505050505090806002018054611b4b90612e3a565b80601f0160208091040260200160405190810160405280929190818152602001828054611b7790612e3a565b8015611bc45780601f10611b9957610100808354040283529160200191611bc4565b820191906000526020600020905b815481529060010190602001808311611ba757829003601f168201915b5050505050905083565b600460009054906101000a900473ffffffffffffffffffffffffffffffffffffffff1681565b6000600160009054906101000a900473ffffffffffffffffffffffffffffffffffffffff16905090565b600160009054906101000a900473ffffffffffffffffffffffffffffffffffffffff1681565b6000600680549050905090565b60028054611c5e90612e3a565b80601f0160208091040260200160405190810160405280929190818152602001828054611c8a90612e3a565b8015611cd75780601f10611cac57610100808354040283529160200191611cd7565b820191906000526020600020905b815481529060010190602001808311611cba57829003601f168201915b505050505081565b60068181548110611cef57600080fd5b906000526020600020016000915054906101000a900473ffffffffffffffffffffffffffffffffffffffff1681565b60088181548110611d2e57600080fd5b906000526020600020016000915054906101000a900473ffffffffffffffffffffffffffffffffffffffff1681565b600080611d693361225d565b611da8576040517f08c379a0000000000000000000000000000000000000000000000000000000008152600401611d9f90613872565b60405180910390fd5b611db13361233b565b915091509091565b600080611dc53361225d565b611e04576040517f08c379a0000000000000000000000000000000000000000000000000000000008152600401611dfb90613872565b60405180910390fd5b6009805490508310611e4b576040517f08c379a0000000000000000000000000000000000000000000000000000000008152600401611e4290613a28565b60405180910390fd5b6000600a60003373ffffffffffffffffffffffffffffffffffffffff1673ffffffffffffffffffffffffffffffffffffffff16815260200190815260200160002060008581526020019081526020016000206040518060400160405290816000820160009054906101000a900460ff166002811115611ecd57611ecc612a5b565b5b6002811115611edf57611ede612a5b565b5b81526020016001820154815250509050806000015192508060200151915050915091565b600160009054906101000a900473ffffffffffffffffffffffffffffffffffffffff1673ffffffffffffffffffffffffffffffffffffffff163373ffffffffffffffffffffffffffffffffffffffff1614611f93576040517f08c379a0000000000000000000000000000000000000000000000000000000008152600401611f8a9061369c565b60405180910390fd5b60001515600460149054906101000a900460ff16151514611fe9576040517f08c379a0000000000000000000000000000000000000000000000000000000008152600401611fe090612deb565b60405180910390fd5b80600460006101000a81548173ffffffffffffffffffffffffffffffffffffffff021916908373ffffffffffffffffffffffffffffffffffffffff16021790555050565b60606002805461203c90612e3a565b80601f016020809104026020016040519081016040528092919081815260200182805461206890612e3a565b80156120b55780601f1061208a576101008083540402835291602001916120b5565b820191906000526020600020905b81548152906001019060200180831161209857829003601f168201915b5050505050905090565b600460009054906101000a900473ffffffffffffffffffffffffffffffffffffffff1673ffffffffffffffffffffffffffffffffffffffff163373ffffffffffffffffffffffffffffffffffffffff161461214f576040517f08c379a000000000000000000000000000000000000000000000000000000000815260040161214690613904565b60405180910390fd5b60001515600460149054906101000a900460ff161515146121a5576040517f08c379a000000000000000000000000000000000000000000000000000000000815260040161219c90612deb565b60405180910390fd5b6001600460146101000a81548160ff021916908315150217905550565b600380546121cf90612e3a565b80601f01602080910402602001604051908101604052809291908181526020018280546121fb90612e3a565b80156122485780601f1061221d57610100808354040283529160200191612248565b820191906000526020600020905b81548152906001019060200180831161222b57829003601f168201915b505050505081565b6000600880549050905090565b600080600560008473ffffffffffffffffffffffffffffffffffffffff1673ffffffffffffffffffffffffffffffffffffffff16815260200190815260200160002060000180546122ad90612e3a565b80601f01602080910402602001604051908101604052809291908181526020018280546122d990612e3a565b80156123265780601f106122fb57610100808354040283529160200191612326565b820191906000526020600020905b81548152906001019060200180831161230957829003601f168201915b50505050509050600081511415915050919050565b60008060008060005b6009805490508110156124ee576000600a60008873ffffffffffffffffffffffffffffffffffffffff1673ffffffffffffffffffffffffffffffffffffffff16815260200190815260200160002060008381526020019081526020016000206040518060400160405290816000820160009054906101000a900460ff1660028111156123d3576123d2612a5b565b5b60028111156123e5576123e4612a5b565b5b815260200160018201548152505090506000600281111561240957612408612a5b565b5b816000015160028111156124205761241f612a5b565b5b0361243557600080955095505050505061252a565b60028081111561244857612447612a5b565b5b8160000151600281111561245f5761245e612a5b565b5b036124da576009828154811061247857612477613a48565b5b90600052602060002090600402016002015481602001516124999190613a77565b846124a49190613ab9565b9350600982815481106124ba576124b9613a48565b5b906000526020600020906004020160020154836124d79190613ab9565b92505b5080806124e690613aed565b915050612344565b506064811015612520576000810361250f576001600093509350505061252a565b6101f382111561251f576101f391505b5b6002829350935050505b915091565b600082825260208201905092915050565b7f4e6f207365207065726d697465206c6120726563657063696f6e20646520646960008201527f6e65726f2e000000000000000000000000000000000000000000000000000000602082015250565b600061259c60258361252f565b91506125a782612540565b604082019050919050565b600060208201905081810360008301526125cb8161258f565b9050919050565b6000604051905090565b600080fd5b600080fd5b600080fd5b600080fd5b6000601f19601f8301169050919050565b7f4e487b7100000000000000000000000000000000000000000000000000000000600052604160045260246000fd5b612639826125f0565b810181811067ffffffffffffffff8211171561265857612657612601565b5b80604052505050565b600061266b6125d2565b90506126778282612630565b919050565b600067ffffffffffffffff82111561269757612696612601565b5b6126a0826125f0565b9050602081019050919050565b82818337600083830152505050565b60006126cf6126ca8461267c565b612661565b9050828152602081018484840111156126eb576126ea6125eb565b5b6126f68482856126ad565b509392505050565b600082601f830112612713576127126125e6565b5b81356127238482602086016126bc565b91505092915050565b6000819050919050565b61273f8161272c565b811461274a57600080fd5b50565b60008135905061275c81612736565b92915050565b6000806000806080858703121561277c5761277b6125dc565b5b600085013567ffffffffffffffff81111561279a576127996125e1565b5b6127a6878288016126fe565b94505060206127b78782880161274d565b93505060406127c88782880161274d565b92505060606127d98782880161274d565b91505092959194509250565b6127ee8161272c565b82525050565b600060208201905061280960008301846127e5565b92915050565b600081519050919050565b60005b8381101561283857808201518184015260208101905061281d565b60008484015250505050565b600061284f8261280f565b612859818561252f565b935061286981856020860161281a565b612872816125f0565b840191505092915050565b600060208201905081810360008301526128978184612844565b905092915050565b600073ffffffffffffffffffffffffffffffffffffffff82169050919050565b60006128ca8261289f565b9050919050565b6128da816128bf565b81146128e557600080fd5b50565b6000813590506128f7816128d1565b92915050565b60008060408385031215612914576129136125dc565b5b6000612922858286016128e8565b925050602083013567ffffffffffffffff811115612943576129426125e1565b5b61294f858286016126fe565b9150509250929050565b60008115159050919050565b61296e81612959565b82525050565b60006020820190506129896000830184612965565b92915050565b6003811061299c57600080fd5b50565b6000813590506129ae8161298f565b92915050565b600080600080608085870312156129ce576129cd6125dc565b5b60006129dc878288016128e8565b94505060206129ed8782880161274d565b93505060406129fe8782880161299f565b9250506060612a0f8782880161274d565b91505092959194509250565b60008060408385031215612a3257612a316125dc565b5b6000612a40858286016128e8565b9250506020612a518582860161274d565b9150509250929050565b7f4e487b7100000000000000000000000000000000000000000000000000000000600052602160045260246000fd5b60038110612a9b57612a9a612a5b565b5b50565b6000819050612aac82612a8a565b919050565b6000612abc82612a9e565b9050919050565b612acc81612ab1565b82525050565b6000604082019050612ae76000830185612ac3565b612af460208301846127e5565b9392505050565b600060208284031215612b1157612b106125dc565b5b6000612b1f8482850161274d565b91505092915050565b60006080820190508181036000830152612b428187612844565b9050612b5160208301866127e5565b612b5e60408301856127e5565b612b6b60608301846127e5565b95945050505050565b612b7d816128bf565b82525050565b6000602082019050612b986000830184612b74565b92915050565b60008060008060808587031215612bb857612bb76125dc565b5b6000612bc6878288016128e8565b945050602085013567ffffffffffffffff811115612be757612be66125e1565b5b612bf3878288016126fe565b935050604085013567ffffffffffffffff811115612c1457612c136125e1565b5b612c20878288016126fe565b925050606085013567ffffffffffffffff811115612c4157612c406125e1565b5b612c4d878288016126fe565b91505092959194509250565b60006060820190508181036000830152612c738186612844565b90508181036020830152612c878185612844565b90508181036040830152612c9b8184612844565b9050949350505050565b600060208284031215612cbb57612cba6125dc565b5b6000612cc9848285016128e8565b91505092915050565b600080600060608486031215612ceb57612cea6125dc565b5b600084013567ffffffffffffffff811115612d0957612d086125e1565b5b612d15868287016126fe565b935050602084013567ffffffffffffffff811115612d3657612d356125e1565b5b612d42868287016126fe565b925050604084013567ffffffffffffffff811115612d6357612d626125e1565b5b612d6f868287016126fe565b9150509250925092565b7f4c6120617369676e6174757261206e6f2065737461206162696572746120612060008201527f6d6f64696669636163696f6e0000000000000000000000000000000000000000602082015250565b6000612dd5602c8361252f565b9150612de082612d79565b604082019050919050565b60006020820190508181036000830152612e0481612dc8565b9050919050565b7f4e487b7100000000000000000000000000000000000000000000000000000000600052602260045260246000fd5b60006002820490506001821680612e5257607f821691505b602082108103612e6557612e64612e0b565b5b50919050565b600081905092915050565b60008190508160005260206000209050919050565b60008154612e9881612e3a565b612ea28186612e6b565b94506001821660008114612ebd5760018114612ed257612f05565b60ff1983168652811515820286019350612f05565b612edb85612e76565b60005b83811015612efd57815481890152600182019150602081019050612ede565b838801955050505b50505092915050565b6000612f1a8284612e8b565b915081905092915050565b50565b6000612f35600083612e6b565b9150612f4082612f25565b600082019050919050565b6000612f5682612f28565b9150819050919050565b7f4573206e656365736172696f207365722070726f6665736f72206f20636f6f7260008201527f64696e61646f72206465206c6120617369676e61747572610000000000000000602082015250565b6000612fbc60388361252f565b9150612fc782612f60565b604082019050919050565b60006020820190508181036000830152612feb81612faf565b9050919050565b7f456c206e6f6d627265206465206c61206576616c756163696f6e206e6f20707560008201527f6564652073657220766163696f00000000000000000000000000000000000000602082015250565b600061304e602d8361252f565b915061305982612ff2565b604082019050919050565b6000602082019050818103600083015261307d81613041565b9050919050565b60006020601f8301049050919050565b600082821b905092915050565b6000600883026130d17fffffffffffffffffffffffffffffffffffffffffffffffffffffffffffffffff82613094565b6130db8683613094565b95508019841693508086168417925050509392505050565b6000819050919050565b600061311861311361310e8461272c565b6130f3565b61272c565b9050919050565b6000819050919050565b613132836130fd565b61314661313e8261311f565b8484546130a1565b825550505050565b600090565b61315b61314e565b613166818484613129565b505050565b5b8181101561318a5761317f600082613153565b60018101905061316c565b5050565b601f8211156131cf576131a081612e76565b6131a984613084565b810160208510156131b8578190505b6131cc6131c485613084565b83018261316b565b50505b505050565b600082821c905092915050565b60006131f2600019846008026131d4565b1980831691505092915050565b600061320b83836131e1565b9150826002028217905092915050565b6132248261280f565b67ffffffffffffffff81111561323d5761323c612601565b5b6132478254612e3a565b61325282828561318e565b600060209050601f8311600181146132855760008415613273578287015190505b61327d85826131ff565b8655506132e5565b601f19841661329386612e76565b60005b828110156132bb57848901518255600182019150602085019450602081019050613296565b868310156132d857848901516132d4601f8916826131e1565b8355505b6001600288020188555050505b505050505050565b7f4e487b7100000000000000000000000000000000000000000000000000000000600052601160045260246000fd5b60006133278261272c565b91506133328361272c565b925082820390508181111561334a576133496132ed565b5b92915050565b7f456c206e6f6d627265206e6f20707565646520657374617220766163696f0000600082015250565b6000613386601e8361252f565b915061339182613350565b602082019050919050565b600060208201905081810360008301526133b581613379565b9050919050565b7f4573206e656365736172696f207365722070726f6665736f72206465206c612060008201527f617369676e617475726100000000000000000000000000000000000000000000602082015250565b6000613418602a8361252f565b9150613423826133bc565b604082019050919050565b600060208201905081810360008301526134478161340b565b9050919050565b7f536f6c6f2073652070756564656e2063616c696669636172206120756e20616c60008201527f756d6e6f206d6174726963756c61646f2e000000000000000000000000000000602082015250565b60006134aa60318361252f565b91506134b58261344e565b604082019050919050565b600060208201905081810360008301526134d98161349d565b9050919050565b7f4e6f2073652070756564652063616c69666963617220756e61206576616c756160008201527f63696f6e20717565206e6f206578697374652e00000000000000000000000000602082015250565b600061353c60338361252f565b9150613547826134e0565b604082019050919050565b6000602082019050818103600083015261356b8161352f565b9050919050565b7f4e6f2073652070756564652063616c69666963617220636f6e20756e61206e6f60008201527f7461207375706572696f722061206c61206d6178696d61207065726d6974696460208201527f612e000000000000000000000000000000000000000000000000000000000000604082015250565b60006135f460428361252f565b91506135ff82613572565b606082019050919050565b60006020820190508181036000830152613623816135e7565b9050919050565b7f5573746564206e6f2068612063726561646f2f646573706c656761646f20657360008201527f746520636f6e747261746f000000000000000000000000000000000000000000602082015250565b6000613686602b8361252f565b91506136918261362a565b604082019050919050565b600060208201905081810360008301526136b581613679565b9050919050565b7f456c206e6f6d627265206e6f2070756564652073657220766163696f00000000600082015250565b60006136f2601c8361252f565b91506136fd826136bc565b602082019050919050565b60006020820190508181036000830152613721816136e5565b9050919050565b7f456c20444e49206e6f2070756564652073657220766163696f00000000000000600082015250565b600061375e60198361252f565b915061376982613728565b602082019050919050565b6000602082019050818103600083015261378d81613751565b9050919050565b7f456c20616c756d6e6f2079612065737461206d6174726963756c61646f000000600082015250565b60006137ca601d8361252f565b91506137d582613794565b602082019050919050565b600060208201905081810360008301526137f9816137bd565b9050919050565b7f536f6c6f207065726d697469646f206120616c756d6e6f73206d61747269637560008201527f6c61646f73000000000000000000000000000000000000000000000000000000602082015250565b600061385c60258361252f565b915061386782613800565b604082019050919050565b6000602082019050818103600083015261388b8161384f565b9050919050565b7f5573746564206e6f20657320636f6f7264696e61646f7220646520657374612060008201527f617369676e617475726100000000000000000000000000000000000000000000602082015250565b60006138ee602a8361252f565b91506138f982613892565b604082019050919050565b6000602082019050818103600083015261391d816138e1565b9050919050565b7f536f6c6f207065726d697469646f206120616c756d6e6f73206e6f206d61747260008201527f6963756c61646f73000000000000000000000000000000000000000000000000602082015250565b600061398060288361252f565b915061398b82613924565b604082019050919050565b600060208201905081810360008301526139af81613973565b9050919050565b7f456c20696e64696365206465206c61206576616c756163696f6e206e6f20657860008201527f697374652e000000000000000000000000000000000000000000000000000000602082015250565b6000613a1260258361252f565b9150613a1d826139b6565b604082019050919050565b60006020820190508181036000830152613a4181613a05565b9050919050565b7f4e487b7100000000000000000000000000000000000000000000000000000000600052603260045260246000fd5b6000613a828261272c565b9150613a8d8361272c565b9250828202613a9b8161272c565b91508282048414831517613ab257613ab16132ed565b5b5092915050565b6000613ac48261272c565b9150613acf8361272c565b9250828201905080821115613ae757613ae66132ed565b5b92915050565b6000613af88261272c565b91507fffffffffffffffffffffffffffffffffffffffffffffffffffffffffffffffff8203613b2a57613b296132ed565b5b60018201905091905056fea26469706673582212201f46f98335fe04a7ba0530476d5de1c246d21e904c37b60d5f3327f10f4a213e64736f6c63430008130033",
  "immutableReferences": {},
  "source": "// SPDX-License-Identifier: UNLICENSED\r\npragma solidity ^0.8.16;\r\n\r\n/**\r\n * Smart Contract que representa a una asignatura de Grado/Master\r\n * Version Full - David lvarez Muiz, Jose Luis Bentez, Saulo Nuez Ortega\r\n */\r\n\r\ncontract Asignatura {\r\n    string public version = \"2023 Full\";\r\n\r\n    // Direccion (address) del usuario que ha desplegado el contrato\r\n    address public owner;\r\n\r\n    /// Nombre de la asignatura\r\n    string public nombre;\r\n\r\n    /// Curso academico\r\n    string public curso;\r\n\r\n    /// Propiedad para guardar la direccin del coordinador de la asignatura\r\n    address public coordinador;\r\n\r\n    // Propiedad para indicar si la asignatura est abierta a modificacion o no\r\n    bool public cerrada;\r\n\r\n    /// Datos de un alumno\r\n    struct DatosAlumno {\r\n        string nombre;\r\n        string dni;\r\n        string email;\r\n    }\r\n\r\n    /// Acceder a los datos de un alumno dada su direccion.\r\n    mapping(address => DatosAlumno) public datosAlumno;\r\n\r\n    /// Array con las direcciones de los alumnos matriculados.\r\n    address[] public matriculas;\r\n\r\n    /// Asocia la direccin de un profesor (clave) con su nombre (valor)\r\n    mapping(address => string) public datosProfesor;\r\n\r\n    address[] public profesores;\r\n\r\n    /// Datos de una evaluacion.\r\n    struct Evaluacion {\r\n        string nombre;\r\n        uint256 fecha;\r\n        uint256 porcentaje;\r\n        uint256 notaMin;\r\n    }\r\n\r\n    /// Evaluaciones de la asignatura.\r\n    Evaluacion[] public evaluaciones;\r\n\r\n    /// Tipos de notas: sin usar, no presentado, y nota normal entre 0 y 1000.\r\n    enum TipoNota {\r\n        Empty,\r\n        NP,\r\n        Normal\r\n    }\r\n\r\n    /**\r\n     * Datos de una nota.\r\n     * La calificacion esta multiplicada por 100 porque no hay decimales.\r\n     */\r\n    struct Nota {\r\n        TipoNota tipo;\r\n        uint256 calificacion;\r\n    }\r\n\r\n    /// Dada la direccion de un alumno y el indice de la evaluacion, devuelve la nota del alumno.\r\n    mapping(address => mapping(uint256 => Nota)) public calificaciones;\r\n\r\n    /**\r\n     * Constructor.\r\n     *\r\n     * @param _nombre Nombre de la asignatura.\r\n     * @param _curso  Curso academico.\r\n     */\r\n    constructor(string memory _nombre, string memory _curso) {\r\n        require(\r\n            bytes(_nombre).length != 0,\r\n            \"El nombre de la asignatura no puede ser vacio\"\r\n        );\r\n        require(\r\n            bytes(_curso).length != 0,\r\n            \"El curso academico de la asignatura no puede ser vacio\"\r\n        );\r\n\r\n        owner = msg.sender;\r\n        nombre = _nombre;\r\n        curso = _curso;\r\n    }\r\n\r\n    // ----------------------------------------- FUNCIONES DE LECTURA -------------------------------//\r\n\r\n    function getNombre() public view returns (string memory) {\r\n        return nombre;\r\n    }\r\n\r\n    function getCurso() public view returns (string memory) {\r\n        return curso;\r\n    }\r\n\r\n    function getOwner() public view returns (address) {\r\n        return owner;\r\n    }\r\n\r\n    /// Devuelve el coordinador de la asignatura\r\n    function getCoordinador() public view returns (address) {\r\n        return coordinador;\r\n    }\r\n\r\n    /// Devuelve el nmero de profesores de una asignatura\r\n    function profesoresLength() public view returns (uint256) {\r\n        return profesores.length;\r\n    }\r\n\r\n    /**\r\n     * El numero de alumnos matriculados.\r\n     *\r\n     * @return El numero de alumnos matriculados.\r\n     */\r\n    function matriculasLength() public view returns (uint256) {\r\n        return matriculas.length;\r\n    }\r\n\r\n    /**\r\n     * Permite a un alumno obtener sus propios datos.\r\n     *\r\n     * @return _nombre El nombre del alumno que invoca el metodo.\r\n     * @return _email  El email del alumno que invoca el metodo.\r\n     */\r\n    function quienSoy()\r\n        public\r\n        view\r\n        soloMatriculados\r\n        returns (string memory, string memory, string memory)\r\n    {\r\n        DatosAlumno memory datos = datosAlumno[msg.sender];\r\n        return (datos.nombre, datos.dni, datos.email);\r\n    }\r\n\r\n    /**\r\n     * El numero de evaluaciones creadas.\r\n     *\r\n     * @return El numero de evaluaciones creadas.\r\n     */\r\n    function evaluacionesLength() public view returns (uint256) {\r\n        return evaluaciones.length;\r\n    }\r\n\r\n    /**\r\n     * Devuelve el tipo de nota y la calificacion que ha sacado el alumno que invoca el metodo en la evaluacion pasada como parametro.\r\n     *\r\n     * @param evaluacion Indice de una evaluacion en el array de evaluaciones.\r\n     *\r\n     * @return tipo         El tipo de nota que ha sacado el alumno.\r\n     * @return calificacion La calificacion que ha sacado el alumno.\r\n     */\r\n    function miNota(\r\n        uint256 evaluacion\r\n    )\r\n        public\r\n        view\r\n        soloMatriculados\r\n        returns (TipoNota tipo, uint256 calificacion)\r\n    {\r\n        require(\r\n            evaluacion < evaluaciones.length,\r\n            \"El indice de la evaluacion no existe.\"\r\n        );\r\n\r\n        Nota memory nota = calificaciones[msg.sender][evaluacion];\r\n\r\n        tipo = nota.tipo;\r\n        calificacion = nota.calificacion;\r\n    }\r\n\r\n    // Devuelve la nota final del alumno\r\n    function miNotaFinal()\r\n        public\r\n        view\r\n        soloMatriculados\r\n        returns (TipoNota, uint256)\r\n    {\r\n        return calcularNotaFinal(msg.sender);\r\n    }\r\n\r\n    function notaFinal(\r\n        address _alumno\r\n    ) public view soloCoordinador returns (TipoNota, uint256) {\r\n        return calcularNotaFinal(_alumno);\r\n    }\r\n\r\n    /**\r\n     * Consulta si una direccion pertenece a un alumno matriculado.\r\n     *\r\n     * @param alumno La direccion de un alumno.\r\n     *\r\n     * @return true si es una alumno matriculado.\r\n     */\r\n    function estaMatriculado(address alumno) private view returns (bool) {\r\n        string memory _nombre = datosAlumno[alumno].nombre;\r\n\r\n        return bytes(_nombre).length != 0;\r\n    }\r\n\r\n    //----------------------------------- FUNCIONES AUXILIARES ----------------------------//\r\n\r\n    function calcularNotaFinal(\r\n        address alumnoAddress\r\n    ) private view returns (TipoNota, uint256) {\r\n        uint256 nota = 0;\r\n        uint256 totalPorcentaje = 0;\r\n\r\n        for (uint256 i = 0; i < evaluaciones.length; i++) {\r\n            Nota memory notaL = (calificaciones[alumnoAddress][i]);\r\n\r\n            if (notaL.tipo == TipoNota.Empty) {\r\n                return (TipoNota.Empty, 0);\r\n            } else if (notaL.tipo == TipoNota.Normal) {\r\n                nota += (notaL.calificacion * evaluaciones[i].porcentaje);\r\n                totalPorcentaje += evaluaciones[i].porcentaje;\r\n            }\r\n        }\r\n\r\n        if (totalPorcentaje < 100) {\r\n            if (totalPorcentaje == 0) {\r\n                return (TipoNota.NP, 0);\r\n            } else {\r\n                if (nota > 499) {\r\n                    nota = 499;\r\n                }\r\n            }\r\n        }\r\n        return (TipoNota.Normal, nota);\r\n    }\r\n\r\n    // ----------------------------------------- FUNCIONES DE ESCRITURA -------------------------------//\r\n\r\n    /// Mtodo para establecer la direccin del coordinador\r\n    function setCoordinador(\r\n        address _nuevaDireccion\r\n    ) public soloOwner soloAbierta {\r\n        coordinador = _nuevaDireccion;\r\n    }\r\n\r\n    /// Mtodo para cerrar asignatura e impedir su modificacin\r\n    function cerrar() public soloCoordinador soloAbierta {\r\n        cerrada = true;\r\n    }\r\n\r\n    /// Mtodo para aadir un profesor a la asignatura\r\n    function addProfesor(\r\n        address _profesorDireccion,\r\n        string memory _nombre\r\n    ) public soloAbierta {\r\n        require(bytes(_nombre).length != 0, \"El nombre no puede estar vacio\");\r\n        bytes memory returnName = abi.encodePacked(\r\n            datosProfesor[_profesorDireccion]\r\n        );\r\n        bytes memory expectedName = abi.encodePacked(\"\");\r\n        if (keccak256(returnName) == keccak256(expectedName)) {\r\n            datosProfesor[_profesorDireccion] = _nombre;\r\n            profesores.push(_profesorDireccion);\r\n        }\r\n    }\r\n\r\n    /**\r\n     * Los alumnos pueden automatricularse con el metodo automatricula.\r\n     *\r\n     * Impedir que se pueda meter un nombre vacio.\r\n     *\r\n     * @param _nombre El nombre del alumno.\r\n     * @param _email  El email del alumno.\r\n     * @param _dni El DNI del alumno\r\n     */\r\n    function automatricula(\r\n        string memory _nombre,\r\n        string memory _dni,\r\n        string memory _email\r\n    ) public soloNoMatriculados {\r\n        require(bytes(_nombre).length != 0, \"El nombre no puede ser vacio\");\r\n        require(bytes(_dni).length != 0, \"El DNI no puede ser vacio\");\r\n\r\n        bytes memory dni_bytes = abi.encodePacked(datosAlumno[msg.sender].dni);\r\n\r\n        if (dni_bytes.length != 0) {\r\n            revert DNIExistente();\r\n        } else {\r\n            datosAlumno[msg.sender] = DatosAlumno(_nombre, _dni, _email);\r\n            matriculas.push(msg.sender);\r\n        }\r\n    }\r\n\r\n    /// Matricula un nuevo alumno en la asignatura\r\n    function matricular(\r\n        address _direccion,\r\n        string memory _nombre,\r\n        string memory _dni,\r\n        string memory _email\r\n    ) public soloOwner {\r\n        require(bytes(_nombre).length != 0, \"El nombre no puede ser vacio\");\r\n        require(bytes(_dni).length != 0, \"El DNI no puede ser vacio\");\r\n        require(\r\n            bytes(datosAlumno[_direccion].dni).length == 0,\r\n            \"El alumno ya esta matriculado\"\r\n        );\r\n        datosAlumno[_direccion] = DatosAlumno(_nombre, _dni, _email);\r\n        matriculas.push(_direccion);\r\n    }\r\n\r\n    /**\r\n     * Crear una prueba de evaluacion de la asignatura. Por ejemplo, el primer parcial, o la practica 3.\r\n     *\r\n     * Las evaluaciones se meteran en el array evaluaciones, y nos referiremos a ellas por su posicion en el array.\r\n     *\r\n     * @param _nombre El nombre de la evaluacion.\r\n     * @param _fecha  La fecha de evaluacion (segundos desde el 1/1/1970).\r\n     * @param _porcentaje El porcentaje de puntos que proporciona a la nota final.\r\n     *\r\n     * @return La posicion en el array evaluaciones,\r\n     */\r\n    function creaEvaluacion(\r\n        string memory _nombre,\r\n        uint256 _fecha,\r\n        uint256 _porcentaje,\r\n        uint256 _notaMin\r\n    ) public soloAbierta soloProfesor_Coordinador returns (uint256) {\r\n        require(\r\n            bytes(_nombre).length != 0,\r\n            \"El nombre de la evaluacion no puede ser vacio\"\r\n        );\r\n        evaluaciones.push(\r\n            Evaluacion(_nombre, _fecha, _porcentaje, _notaMin) //_notaMin es la nota mnima multiplicada por 100 para evitar decimales\r\n        );\r\n        return evaluaciones.length - 1;\r\n    }\r\n\r\n    /**\r\n     * Poner la nota de un alumno en una evaluacion.\r\n     *\r\n     * @param _alumno        La direccion del alumno.\r\n     * @param evaluacionIndex El indice de una evaluacion en el array evaluaciones.\r\n     * @param tipo          Tipo de nota.\r\n     * @param calificacion  La calificacion, multipilicada por 100 porque no hay decimales.\r\n     */\r\n    function califica(\r\n        address _alumno,\r\n        uint256 evaluacionIndex,\r\n        TipoNota tipo,\r\n        uint256 calificacion\r\n    ) public soloProfesor soloAbierta {\r\n        require(\r\n            estaMatriculado(_alumno),\r\n            \"Solo se pueden calificar a un alumno matriculado.\"\r\n        );\r\n        require(\r\n            evaluacionIndex < evaluaciones.length,\r\n            \"No se puede calificar una evaluacion que no existe.\"\r\n        );\r\n\r\n        require(\r\n            calificacion <= 1000,\r\n            \"No se puede calificar con una nota superior a la maxima permitida.\"\r\n        );\r\n\r\n        Nota memory nota = Nota(tipo, calificacion);\r\n\r\n        calificaciones[_alumno][evaluacionIndex] = nota;\r\n    }\r\n\r\n    /// No se permite la recepcion de dinero.\r\n    receive() external payable {\r\n        revert(\"No se permite la recepcion de dinero.\");\r\n    }\r\n\r\n    // ------------------------------ ERRORES ---------- //\r\n\r\n    /// Error que indica que el DNI introducido ya ha sido utilizado anteriormente\r\n    error DNIExistente();\r\n\r\n    // -------------------------------- MODIFICADORES -------------------------- //\r\n\r\n    /// Modificador para que una funcion solo la pueda ejecutar un alumno matriculado.\r\n    modifier soloMatriculados() {\r\n        require(\r\n            estaMatriculado(msg.sender),\r\n            \"Solo permitido a alumnos matriculados\"\r\n        );\r\n        _;\r\n    }\r\n\r\n    /// Modificador para que una funcion solo la pueda ejecutar un alumno no matriculado aun\r\n    modifier soloNoMatriculados() {\r\n        require(\r\n            !estaMatriculado(msg.sender),\r\n            \"Solo permitido a alumnos no matriculados\"\r\n        );\r\n        _;\r\n    }\r\n\r\n    /// Modificador para que una funcion solo la pueda ejecutar el creador del contrato\r\n    modifier soloOwner() {\r\n        require(\r\n            msg.sender == owner,\r\n            \"Usted no ha creado/desplegado este contrato\"\r\n        );\r\n        _;\r\n    }\r\n\r\n    /// Modificador para que una funcion solo la pueda ejecutar un coordinador\r\n    modifier soloCoordinador() {\r\n        require(\r\n            msg.sender == coordinador,\r\n            \"Usted no es coordinador de esta asignatura\"\r\n        );\r\n        _;\r\n    }\r\n\r\n    /// Modificador para que una funcion solo la pueda ejecutar un profesor\r\n    modifier soloProfesor() {\r\n        bytes memory obtainedResult = abi.encodePacked(\r\n            datosProfesor[msg.sender]\r\n        );\r\n        bytes memory expectedResult = abi.encodePacked(\"\");\r\n        require(\r\n            keccak256(obtainedResult) != keccak256(expectedResult),\r\n            \"Es necesario ser profesor de la asignatura\"\r\n        );\r\n        _;\r\n    }\r\n\r\n    modifier soloProfesor_Coordinador() {\r\n        bytes memory obtainedResult = abi.encodePacked(\r\n            datosProfesor[msg.sender]\r\n        );\r\n        bytes memory expectedResult = abi.encodePacked(\"\");\r\n        require(\r\n            keccak256(obtainedResult) != keccak256(expectedResult) ||\r\n                msg.sender == coordinador,\r\n            \"Es necesario ser profesor o coordinador de la asignatura\"\r\n        );\r\n        _;\r\n    }\r\n\r\n    /// Modificador para que una funcion solo se pueda ejecutar si la asignatura est abierta a modificacion\r\n    modifier soloAbierta() {\r\n        require(\r\n            cerrada == false,\r\n            \"La asignatura no esta abierta a modificacion\"\r\n        );\r\n        _;\r\n    }\r\n}\r\n",
  "sourcePath": "C:\\Users\\david\\OneDrive\\Escritorio\\Master\\Asignaturas\\Cuatri 1\\Blockchain\\Practicas\\P4\\Ejemplo CE 23-17_\\AsignaturaLite\\truffle\\contracts\\Asignatura.sol",
  "compiler": {
    "name": "solc",
    "version": "0.8.19+commit.7dd6d404.Emscripten.clang"
  },
  "schemaVersion": "3.4.16",
  "updatedAt": "2024-01-18T18:18:49.630Z",
  "networkType": "ethereum",
  "devdoc": {
    "kind": "dev",
    "methods": {
      "automatricula(string,string,string)": {
        "params": {
          "_dni": "El DNI del alumno",
          "_email": "El email del alumno.",
          "_nombre": "El nombre del alumno."
        }
      },
      "califica(address,uint256,uint8,uint256)": {
        "params": {
          "_alumno": "La direccion del alumno.",
          "calificacion": "La calificacion, multipilicada por 100 porque no hay decimales.",
          "evaluacionIndex": "El indice de una evaluacion en el array evaluaciones.",
          "tipo": "Tipo de nota."
        }
      },
      "constructor": {
        "params": {
          "_curso": "Curso academico.",
          "_nombre": "Nombre de la asignatura."
        }
      },
      "creaEvaluacion(string,uint256,uint256,uint256)": {
        "params": {
          "_fecha": "La fecha de evaluacion (segundos desde el 1/1/1970).",
          "_nombre": "El nombre de la evaluacion.",
          "_porcentaje": "El porcentaje de puntos que proporciona a la nota final."
        },
        "returns": {
          "_0": "La posicion en el array evaluaciones,"
        }
      },
      "evaluacionesLength()": {
        "returns": {
          "_0": "El numero de evaluaciones creadas."
        }
      },
      "matriculasLength()": {
        "returns": {
          "_0": "El numero de alumnos matriculados."
        }
      },
      "miNota(uint256)": {
        "params": {
          "evaluacion": "Indice de una evaluacion en el array de evaluaciones."
        },
        "returns": {
          "calificacion": "La calificacion que ha sacado el alumno.",
          "tipo": "        El tipo de nota que ha sacado el alumno."
        }
      },
      "quienSoy()": {
        "returns": {
          "_0": "_nombre El nombre del alumno que invoca el metodo.",
          "_1": "_email  El email del alumno que invoca el metodo."
        }
      }
    },
    "version": 1
  },
  "userdoc": {
    "errors": {
      "DNIExistente()": [
        {
          "notice": "Error que indica que el DNI introducido ya ha sido utilizado anteriormente"
        }
      ]
    },
    "kind": "user",
    "methods": {
      "addProfesor(address,string)": {
        "notice": "Mtodo para aadir un profesor a la asignatura"
      },
      "automatricula(string,string,string)": {
        "notice": "Los alumnos pueden automatricularse con el metodo automatricula. Impedir que se pueda meter un nombre vacio."
      },
      "califica(address,uint256,uint8,uint256)": {
        "notice": "Poner la nota de un alumno en una evaluacion."
      },
      "calificaciones(address,uint256)": {
        "notice": "Dada la direccion de un alumno y el indice de la evaluacion, devuelve la nota del alumno."
      },
      "cerrar()": {
        "notice": "Mtodo para cerrar asignatura e impedir su modificacin"
      },
      "constructor": {
        "notice": "Constructor."
      },
      "coordinador()": {
        "notice": "Propiedad para guardar la direccin del coordinador de la asignatura"
      },
      "creaEvaluacion(string,uint256,uint256,uint256)": {
        "notice": "Crear una prueba de evaluacion de la asignatura. Por ejemplo, el primer parcial, o la practica 3. Las evaluaciones se meteran en el array evaluaciones, y nos referiremos a ellas por su posicion en el array."
      },
      "curso()": {
        "notice": "Curso academico"
      },
      "datosAlumno(address)": {
        "notice": "Acceder a los datos de un alumno dada su direccion."
      },
      "datosProfesor(address)": {
        "notice": "Asocia la direccin de un profesor (clave) con su nombre (valor)"
      },
      "evaluaciones(uint256)": {
        "notice": "Evaluaciones de la asignatura."
      },
      "evaluacionesLength()": {
        "notice": "El numero de evaluaciones creadas."
      },
      "getCoordinador()": {
        "notice": "Devuelve el coordinador de la asignatura"
      },
      "matricular(address,string,string,string)": {
        "notice": "Matricula un nuevo alumno en la asignatura"
      },
      "matriculas(uint256)": {
        "notice": "Array con las direcciones de los alumnos matriculados."
      },
      "matriculasLength()": {
        "notice": "El numero de alumnos matriculados."
      },
      "miNota(uint256)": {
        "notice": "Devuelve el tipo de nota y la calificacion que ha sacado el alumno que invoca el metodo en la evaluacion pasada como parametro."
      },
      "nombre()": {
        "notice": "Nombre de la asignatura"
      },
      "profesoresLength()": {
        "notice": "Devuelve el nmero de profesores de una asignatura"
      },
      "quienSoy()": {
        "notice": "Permite a un alumno obtener sus propios datos."
      },
      "setCoordinador(address)": {
        "notice": "Mtodo para establecer la direccin del coordinador"
      }
    },
    "notice": "Smart Contract que representa a una asignatura de Grado/Master Version Full - David lvarez Muiz, Jose Luis Bentez, Saulo Nuez Ortega",
    "version": 1
  }
}